:020000040000fa
:080000000001040000000000f3
:020000040000fa
:10000800cc020000cc020000cc020000cc020000b0
:10001800cc020000cc020000cc020000cc020000a0
:100028004e590100cc020000cc020000cc020000b6
:10003800cc020000cc020000a4550100cc02000054
:10004800cc0200005c6401005a630100321c01000c
:10005800cc020000cc0200004c400100cc020000a1
:10006800cc020000cc020000cc020000cc02000050
:10007800cc0200001a650100ba010000cc020000a1
:100088001a640100ba630100cc020000cc0200002f
:10009800cc020000cc020000cc020000cc02000020
:1000a800cc020000cc020000cc020000cc02000010
:1000b800cc020000cc020000cc020000cc02000000
:1000c800cc020000e4620100cc020000cc02000077
:1000d800cc020000cc020000cc020000cc020000e0
:1000e800cc020000cc020000cc020000cc020000d0
:0800f800cc020000cc02000064
:020000040000fa
:10010800cc020000cc020000cc020000cc020000af
:10011800cc020000cc020000cc020000cc0200009f
:100128004e590100cc020000cc020000cc020000b5
:10013800cc020000cc020000a4550100cc02000053
:10014800cc0200005c6401005a630100321c01000b
:10015800cc020000cc0200004c400100cc020000a0
:10016800cc020000cc020000cc020000cc0200004f
:10017800cc0200001a650100ba010000cc020000a0
:100188001a640100ba630100cc020000cc0200002e
:10019800cc020000cc020000cc020000cc0200001f
:1001a800cc020000cc020000cc020000cc0200000f
:1001b800cc020000cc020000cc020000cc020000ff
:1001c800cc020000e4620100cc020000cc02000076
:1001d800cc020000cc020000cc020000cc020000df
:1001e800cc020000cc020000cc020000cc020000cf
:0801f800cc020000cc02000063
:020000040000fa
:100200008f4822000e7f22000e01880000000000af
:10021000000020000000e000020032000001200089
:10022000200288000c000700205822001100200046
:1002300011000700000020000000e0000200320072
:1002400000000200000000000a210200010000007e
:100250000040da000000fe004440a900a0d92000c0
:100260000000e0000300320000002000a001880030
:100270004440a8000000060091018800800078003a
:100280000000eb0015003700e280400032a0b4000f
:100290009101ba00e280400032a0b4009102ba009d
:1002a000e280400032a0b4000002eb00472bde00e9
:1002b000f507b200602ce10004003a000059eb00a1
:1002c0008301e900fdff3e00040037006128e100e2
:1002d000010032000082eb00040007001101ba00a7
:1002e0000200e000e8ff3a00000006003159ba00c1
:1002f0008301e9000c0032002159ba008301e900b2
:10030000080032000400e00003003a00e2804000f0
:1003100032a0b400f5ff370011d9ba008301e9001b
:10032000faff3a008100e800e180400032a0b4000a
:10033000000006001005040001000000e245040072
:10034000010000009804040001000000a84304001c
:10035000010000001a0204000100000066400400d1
:100360000100000038410400010000009059040021
:10037000010000003400f800881f78000800200009
:10038000a80188004f0478000000fa0086c0a90088
:100390001fe1a80021e1a9000080fa003400f90063
:1003a000004006000000fa00240020000409880034
:1003b0000002eb00c408880014002000e408880054
:1003c00086c0a9008ec0a80021e1a8000080fa0024
:1003d000000006000000fa0024002000f408880055
:1003e00024f08000a408880024f080000402e800c3
:1003f000d408880086a0a9001fe1a9008ea0a8004b
:100400000080fa00000006000200fa00000f7800e9
:100410000002eb00e44488001e02780004f088002b
:100420000002eb0014f08800eaff0700ddff070080
:100430000080fa00000006001000fa003007980063
:1004400041079800520798006307980074079800c6
:100450000002eb0014079800ce0290005e029000ac
:1004600004aab900840278006e0290000402e80039
:1004700004aab900040278000402e80084027800ab
:10048000a4142000848f5200020036000082eb008a
:10049000390037000002eb00040f78002800370015
:1004a0000002eb00240798000b00370065e02100f4
:1004b0001e0290000482420015c0b300054a780075
:1004c0001e0290000402e800140798002e0290001b
:1004d0000402e80024079800ae0290005e0290003b
:1004e000848f5200f1ff35000002eb0024079800d2
:1004f0000b00370065e021001e02900004824200dc
:100500008042eb00054a78001e0290000402e800d9
:10051000140798002e0290000402e80024079800b7
:10052000ee0290005e02900004aab90084027800f6
:100530002e029000848f5200eeff3c001e0fe80058
:100540004e0290009e027800848f5200d4ff350046
:1005500065e021001e0290000482420025c0b30025
:10056000054a78007e02900024f088003e02900048
:10057000f44488000002eb00040078000080fa00d8
:10058000000006000000fa0014f08000040078006b
:100590000080fa00000006000040da000000fe00c3
:1005a0001004b100070035009001b10004003400d0
:1005b0007000b100030035009001b10001003c0063
:1005c00010000500000005006900e100040035008e
:1005d0006d00e100030034000002b10001003200b0
:1005e00000000500100005001004b10003003500f4
:1005f0009001b10001003c00100005000000050062
:10060000800078001104b100030035009101b100b1
:1006100001003c000050a0000000060080007800af
:100620001106b100030035009101b10001003c004a
:100630000050a1000000060064108000e00f52008e
:1006400006003d0004402000751080000502620095
:10065000020032000f02ab00feff32000040da0061
:10066000feff37000a00fa00e00f500027003a00b2
:1006700024208100e10f520006003200e721200013
:10068000c62120008521200064212000e08f530036
:1006900004003a004721200026212000e520200008
:1006a000c4202000000028001400600003003a006d
:1006b000800b780007002800148a7300020278007b
:1006c0000c0037008703e900950178006180610024
:1006d00002003a00e08f5300faff3a00150078005c
:1006e000e103600007003200960378000402e9008d
:1006f00087587800e00f520002003200070a2000fd
:10070000f1ff3700040051000800370024002000ea
:10071000c0bf9f00b4bf9f006a805700d1bf9f0039
:10072000e2bf9f00d40d07006fb897000080fa0069
:10073000000006000a00fa00e20f500022003e000e
:1007400024208100e10f520006003200e721200042
:10075000a62120008421200065212000e08f530085
:1007600004003a004721200006212000e420200058
:10077000c5202000000028001500600003003a009a
:10078000800b780007002800958a73000540200040
:100790009482620001003a0014a0a0008202780056
:1007a00006003700940378000710b200fdff320006
:1007b000b103fb00070b78008502e900e08f5200cf
:1007c000f8ff3a000800370034002000c0bf9f0047
:1007d000e2bf9f00b4bf9f00d1bf9f006a80570057
:1007e000a70d07006fb99700020078000080fa009b
:1007f00000000600889fbe00800478003020810041
:10080000e00f500004003a000e0007000084eb00e7
:10081000e00f50000800350038208100e08f5400c0
:10082000050032000900440006000700e00f5000f8
:1008300001003d000084eb00080078004f04be007a
:1008400000000600e00f500004003a00844022003f
:100850003420890000027800060037000082eb0097
:1008600085482200850f500002003e00302089009c
:100870000002eb00040078000000060003f0a20074
:10088000889fbe008a9fbe008c1f7800b6010700bb
:10089000bd0133006450e1004f0032006420e100ec
:1008a0005200320003826c0007003b000905d000b3
:1008b0000306d000820f54000c065d0002003900d0
:1008c0000200320089017800030678008582550015
:1008d00004003d000003fd008103fd008502ea00e5
:1008e0008b854200840f720002003b006000100004
:1008f000e08018006011b8000005eb007a28e100e4
:100900000a00390006007800c75ddd00f707b20075
:10091000878075002d003700828171000a01780000
:10092000610560008180d1000080d3008502e9006c
:10093000f9ff3b00060440008784480002003b00aa
:1009400060041400e0841c000988a3000700320042
:100950008a81710082817100610164008904d10083
:100960000884d3008b05e800170037000978a3003e
:1009700013003a000b00e000130034008b05e9007f
:100980000804440089844c000a4474000978a300d8
:100990000d003a000b00e000070034008b05e90071
:1009a0000804440089844c0001003a000b00200038
:1009b0000978a300f7ff32000001eb0002003700c6
:1009c000828171000a0178002c0107000cf0a70059
:1009d00001f0a000750137006420e10002003a0038
:1009e000838f6c00750133000801be000200be0059
:1009f0006e013700889fbe008a9fbe008c1f780062
:100a0000590107001002200002003b001045880039
:100a10005d0137008a0062006408e10002003a00cc
:100a200010458800650137006108e100fcff3200d5
:100a30000800be00030478007000070001f0a10068
:100a40000900070008f0a600040037000001be00fe
:100a500091042400b0fd200088ff070009f0a700e2
:100a600001f0a20051013700889fbe008a9fbe009e
:100a70008c9fbe000004be00260107000800be00d7
:100a8000890678006420e100080039000400320083
:100a90000160a000120220001245880053003700b8
:100aa00091fc2300b0fd20004e0037000006eb0053
:100ab00009f0a10003f82300020020000800be0096
:100ac0009f0007000600340001f82300000020000a
:100ad0000801be00490007000004be002c002000f1
:100ae0000800be0093e82300320a230094000700a8
:100af000120034000801be00d1fd2300703d2b0020
:100b00005fff07000005be00b3f32300f27a260062
:100b10000800be002c01070003f82300020020009b
:100b200056ff07000801be0055ff07000a01be007e
:100b3000320007000004be000c06e8000800be00fa
:100b400001f0a10002002000039823007c000700b0
:100b50000800be00160035000801be001a0107009b
:100b60000005be0032cd2c0043fb230044ff0700ec
:100b7000809fbe001269280003d52b000a00be002a
:100b800011010700620f210013ef2b003cff07004b
:100b90000a01be000c0107004f01be00170007004c
:100ba0000801be00080107000801be0034ff07006d
:100bb0000c00e0000b0032000c10a70001f0a200b6
:100bc000b2fd200093fc23006260e10004003200cb
:100bd00022a9200063f023000c10a70063f8230073
:100be00027ff07000df0a70001f0a2004f06be008e
:100bf0004f05be004f04be0000000600889fbe00e7
:100c00008a9fbe008c1f7800d7000700de003300eb
:100c100003866c006450e1002e0032006420e10085
:100c2000330032006150e1002f0032006120e1000a
:100c30003100320085855500eb07b0000900200027
:100c400008042000050037000804440089844c0093
:100c50000a0031000603430087834b000001530064
:100c600081815b00f8ff33000203be000800a00092
:100c70000804440089844c00f6ff3900c639dd00c1
:100c80008301730001003200130020008904d100a9
:100c90000884d3000998a300050032000800a700cb
:100ca0000300a0008904d1000884d3008b05e8006c
:100cb0008904d1000884d3000001eb000281d20036
:100cc0006e00070001f0a1000cf0a70001f0a000e9
:100cd000b60037006420e100b80032000801be0011
:100ce0000200be00f7ff37006120e100b3003200d0
:100cf0006000b800f3ff37000000200001f8270073
:100d0000f0ff3700839f68000100e00002003d0013
:100d100060001000e08018000300e00002003d00c9
:100d200060011100e0811900100107004f00e00090
:100d300002003b0060001000e08018000000060088
:100d40001400200040013700f4ff2f003e0137005f
:100d50000001be006f0007000470a70003f0a100af
:100d60006509b100160032000d0035006828e10069
:100d700006003500f0ff2f00f1ff27000300e00020
:100d800013003b00010028000000050000004000a7
:100d9000818048008502e900fcff3a000800370026
:100da000f88f420002003c008000eb0000000500cc
:100db0008100d1000080d3008502e800fcff3a00ea
:100dc0000300e00002003b0060001000e08018001b
:100dd000000006000001be004e0007000470a700de
:100de00003f0a10003f8a30013003a006509b10065
:100df00010003200090035006928e10002003500ca
:100e0000010028000000050000004000818048002b
:100e10008502e900fcff3a0000000600f88f42005e
:100e2000050035008100d1000080d3008502e80074
:100e3000fcff3a00000006008000eb000000050007
:100e40004f89de00820178001a0137006011b80076
:100e5000280137000001eb00d40007000400320035
:100e60000200200003f8230001f0a70083fe070022
:100e70000000060004002000f3003700810020007d
:100e8000618055000b003d000b00200061fe2f002b
:100e90000100e1001d0034008281710061016400e5
:100ea0008904d1000884d3000000e800faff3a006a
:100eb0007100200061006400030070000200600007
:100ec0000900320061044400e0844c000988a50058
:100ed000050032008b05e8006808e10002003a00d6
:100ee0008904d1000884d300f20f20000258e100e9
:100ef00005003d00c75ddd00f907b200898075007f
:100f000008007800000006000bf827008b0078002e
:100f100000000500c70ade00f107b200f50fb200bd
:100f200008003200e1cf4200020032000170a00050
:100f300024000500810f7000010032000408050044
:100f400044000500810f700002003a001400050003
:100f50008502e9000000400081c04800fcff3b0022
:100f60000170a000240005000004be00e9ff070096
:100f70000003be000405be000200be00e5ff07003e
:100f8000844f7500000006000200be006450e100be
:100f9000050036006420e100020036000968a30065
:100fa00001003a000800be000160a0004f06780072
:100fb0004f05be004f04be0000000600f0ff2f00ea
:100fc000f1ff2700f9ff3700889fbe008a9fbe000f
:100fd0008c1f7800e4ff0700ebff330003866c00f2
:100fe0006450e100240032006420e1002700320058
:100ff0006150e100220032006120e1002100320056
:101000008b854200eb07b1000134b800003ab8000c
:101010000804420089844a00013ab8000030b80050
:101020008880400009014a000400330000004000ad
:1010300081804800020149008b05e900c909dd00f3
:10104000830170000100320013002000c814de008c
:101050004814dd004709de001200b200c808de00b7
:101060000884700085ff070001f0a1000cf0a700c4
:1010700001f0a000cdff37006120e100cfff32007a
:101080000801be000200be00f7ff37006150e1001a
:10109000fcff3a00c9ff3700889fbe008a9fbe0050
:1010a0008c1f78000004be009aff07000478a3009c
:1010b00026003a006120e1002500320009f8a30073
:1010c00025003a006420e10021003200f507b1005c
:1010d0000508a300020032000000400081804800a3
:1010e0006044b8000310200002002000000040000f
:1010f000818048000805440089854c000a054100ac
:101100008b8549000a0550008b8558000300330089
:101110000a00be0002047400838474008301d100bd
:101120000281d300830f7100f0ff3a008904d100df
:101130000884d3006001490082017800c1adde005f
:10114000fb07b0004dff070098ff37000960a000c3
:101150000800be0095ff37001202200012458800eb
:10116000f0ff2f00f1ff270090ff37006022b8004a
:10117000060220000000d0008180d2000482d2004c
:101180008582d2000000a0000202520083825a0031
:10119000030031000202420083824a000000a100e5
:1011a0000603e900f3ff3a0000000600889fbe0036
:1011b0008a9fbe000003be0056ff07008505780029
:1011c00082815200020020006220e10004003a0007
:1011d000f307b100040035007718e1000400350082
:1011e0000600be00140037006000b8000f00370092
:1011f000f50f2000faff2f008502d1000a85d300e9
:101200008301e900fcff3b0081846200000465006b
:10121000890f7400f2ff32008582ea000a85ea0035
:10122000818462000004650014ff070007f0a70036
:1012300001f0a0000081eb000200e0004f05be00bd
:101240004f04be0000000600889fbe008a9fbe00bb
:10125000841f780044ff07004f007800110033001e
:10126000f0ff2f00838f6c0006003b000405650033
:101270000a00a7000800370009f0a60010002000af
:1012800008003700820f5400838f5c000300390090
:101290001000200001003e000000200009f0a7001f
:1012a0000000ea004f05be004f04be000000e00051
:1012b00000000600881f7800030478000300e000a7
:1012c00007003d0060001000e08018006001190078
:1012d000e081190002003b0001f02d0003003700ff
:1012e0000400070008f0a70001f0a0004f047800f8
:1012f00000000600889fbe008a9fbe00008270002a
:101300000402710004827100260032000004be0055
:101310000200be006011b8006b0920009502200099
:101320000182cf000a0039000541b1000082cf00e0
:10133000070039000541b1000982cf0004003900df
:101340000541b1000882cf00010039000541b1001c
:1013500005425200120032000a003b0082817100f7
:10136000610164008100d1000080d3008984d30032
:101370000884d3008b05e8000442e800f7ff3a0038
:10138000070037000804440089844c00000048002e
:10139000818048008b05e9000442e900f9ff3a002a
:1013a000b6fe07004f05be004f04be000000060059
:1013b00006c2b3000002780004007800b042780052
:1013c00086cf5200fbff3200e9cf5200f9ff320016
:1013d000d6c2b30086cf520003003a000002780064
:1013e00016c0b300050037000043eb00b7c2b300de
:1013f00087cf520001003a00000278000000eb00a5
:10140000020037006a00b90000804200b402fb000d
:101410000503b100e98f5200faff3600e04f530098
:10142000010032000000ea0000000600000478001d
:10143000e1000700080078007ffc0700843b2200e1
:10144000e4874700c51d8100889fbe008a9fbe00bb
:101450008c9fbe008e1f7800e08f52000b003a0078
:1014600024029800e4024200a41f8900c51d8900df
:10147000b51f8900a44290000504a00025429800f1
:10148000e44290000504a000654298006704400013
:1014900084402200250020004244de0089482200ca
:1014a0004244dd0084845400050744001100090013
:1014b0008504d800bc482200a21f81000406560003
:1014c00080bf9f000e0747000003eb00e4054400c7
:1014d0000806460002003700160020000d017800c3
:1014e0002242900061026200020032000a003700ce
:1014f000150978009202780025429000610262008e
:10150000fbff320008024100848f520002003900c4
:10151000e00f54003f003d00920678000d00a1004e
:10152000828f5600edff3e00e10f5300eaff3a00c4
:101530000fba9700840f540002003600890f540040
:1015400010003900614ab900b0ff2f0001002000ef
:101550006143b8000402500085825800840f530094
:10156000858f5b00020035000b0578000600370010
:10157000110009000986d8000982b9000405780025
:10158000010037000e0578000a00780099fc07007a
:10159000e10f400005003a000b0578000b007800d1
:1015a00094fc0700e10f40002b003200b41f8100c3
:1015b000000a7800b41f810064034200a442900036
:1015c000860f5000020032000504a0000100370021
:1015d0000504a1002542980064055500843b2200c3
:1015e0000a0540000a087800ba1f8900040d780037
:1015f000b51f81000003eb00254290000404a00009
:10160000a4429800204290000404a10024409800c5
:10161000b2ff3700a41f8900848f520007003600f4
:101620001403be008042eb00161f8900271f8900ab
:10163000120a7800a41f81002542980022429000df
:10164000a71f81000404a000070978002441980026
:1016500064004100010037000000eb004f077800f4
:101660004f06be004f05be004f04be004f00b10044
:1016700000000600e00f5000080032006400500037
:10168000a41f8100840f500001003100a01f8900b9
:10169000204290000404a1002440980000000600ad
:1016a000889fbe00000478008a9fbe0081047800f5
:1016b000e08f540005003a00e00f54003200320081
:1016c00008007800ebff070030003700e00f5400ff
:1016d00004003a000900780058ff070080047800f1
:1016e0002a003700640254009405780068fa9700d5
:1016f000610262000200320008007800ddff07008e
:10170000090078004dff070080047800e08f540046
:101710001e003200888f54001b00320069bd970004
:101720008885550009055500c2ddde0042d5de0082
:101730000a0178008b0f5500010036000b0178007c
:101740004211dd00880078000900780013000700ce
:10175000888f54000d0031004255dd000a85440099
:10176000880f55000900360008045500141f810039
:10177000251f810042c4de004244dd00088444008d
:10178000048cbe000100370088047800090078004e
:101790004f05be004f04be000000060000027800a6
:1017a00002003700315a78000201e900e00f5100d1
:1017b000fcff3a000000060000000600000278006e
:1017c0008042eb00b4cf1200fdff3a000080ea0037
:1017d00000004200000006000c00fa00a0bf9f00bd
:1017e000c0bf9f00f5ff0700140c2000b0bf9f0092
:1017f000f0bf9f00d4bf9f0074815700efb09700e7
:101800006c805700340007000080fa0000000600da
:10181000881f7800d01f8100470807000004780067
:101820000800780068fb0700e00f5000f9ff3a005d
:10183000e10f440003003200d11f8100080078004e
:10184000020907004f04780000000600889fbe00d0
:10185000000478008a1f780081447800020578002f
:1018600004fd2f0008024200e90f520002003e0072
:10187000040478000f003700080078005afb0700c6
:10188000e00f500005003200e00f55000300320069
:10189000080078005afb0700000478000800780070
:1018a0003ffb070000c2eb00e00f500006003200d3
:1018b0007805b1008984fb0000c2eb00890f540059
:1018c00001003d00084278004f0578000440780090
:1018d0004f04be00000006000002eb00f087470046
:1018e000d01f8900889fbe00044478008a9fbe00f4
:1018f000810478008c9fbe00020578008e1f78005e
:10190000e4b79f0088f79f00380137008885fb0007
:101910008904e8000b0078002bfb0700e00f500063
:1019200002003200baff07003001370055c2b30091
:10193000854f540020013a000044780024c0b300d1
:1019400000477800844578000900780004003700db
:101950004bc0b300010037002bc0b3000900780072
:101960003942780095c6b300854f52009700320087
:101970001b003e00e6c25200854f52006900320053
:1019800010003e00f7c25200854f52002e00320078
:1019900006003e00e04f520027003200a5c2b3000f
:1019a000854f520076003a002500370085c5b30008
:1019b000854f520072003a009bef9f0014002000f8
:1019c0001a00370045c6b300854f52007f00320031
:1019d000e4c24200854f520069003a00deff370042
:1019e00035c7b300854f52001b00320007003e0090
:1019f000e7c25200854f520013003200e3c242009a
:101a0000854f52005e003a007400370055c7b3009e
:101a1000854f52006d003200e3c24200854f5200f4
:101a200057003a009bef9f000002eb00e4b79f00d5
:101a300005c1b3006b0037000ff497008200370038
:101a40000e47e800c5ff3700e2cf5500c0ff320067
:101a50008bc0b300c1ff37006dff0700e04f570098
:101a600002003a004a027800f4b79f00d01f8100bc
:101a7000b107070080057800e18f450013003a00a8
:101a80000ff497000b007800d50037001902fb0017
:101a9000848f550004003a008c0278008904e80025
:101aa000f5b79f0017003700e04f570001003a00dc
:101ab0000b5e78000844e9000d003200d01f810061
:101ac0009d07070080057800010037007fb697006a
:101ad0000b02e800e10f5200080036000b0078000e
:101ae000b9fa0700e00f5000e8ff320003003700aa
:101af0008c027800f5b79f00020037000c027800d6
:101b0000f4b79f00e04f5700b8003a008ff29700fb
:101b10007fb297008542e80085f79f000e4a780063
:101b2000b2003700e04f570005003a008ff29700ef
:101b30008542e80085f79f00ca057800010037005c
:101b4000ffb59700d01f81007b070700e10f400021
:101b500002003a000ff49700a1003700e04f570051
:101b600001003a00805d78000844e9004240a90085
:101b7000f4ff3c008b027800f5b79f009b00370014
:101b80000484fb0004fd2f0008024200e90f52000c
:101b900009003e0006fe07000902780000447800b4
:101ba00084047800b402fb000503b100e98f520001
:101bb000fbff360069ff3700d01f81005e0707007a
:101bc000800f540080003a0088003700a4c0b300a2
:101bd0009bef9f00a4ef9f00030037009bef9f0047
:101be00085c0b300a5ef9f0009ff0700d01f81004b
:101bf000510707000042eb008005780084ef9f004a
:101c0000d4022000848f550005003a00d01f8100c7
:101c10004907070015c0b3008005780085ef9f00d5
:101c20006fb19700afe897000b00780007ff07003f
:101c3000e14f40000c003a000ff49700d11f8100e3
:101c40000b00780001080700e04f54006b003a00d9
:101c5000d41f8100340090007000600068003200e2
:101c60000080eb006600370004032000848f5500dd
:101c700015003a00d01f81002f07070084072000bd
:101c8000840f500004003a006fb29700e00f52003a
:101c9000070032000a00370084052000840f50003e
:101ca00007003a00efb29700e08f520004003200c4
:101cb000d01f810020070700800578000200370050
:101cc000d11f8100e1070700afea97000582fb0002
:101cd00005002000a4b79f00b5b79f006066b8005c
:101ce0002fb19700bfb197000c00be000844e90077
:101cf0009f0a07006fb197000006be00afe897008b
:101d00000b007800d1fe07000080fb0001002000de
:101d10000006460081864e00e04f54000900320064
:101d2000d01f8100040707006fb19700800578007d
:101d3000afe897000b007800c4fe0700e14f4000b9
:101d4000e7ff3a006fb19700afe897000b0078000b
:101d5000befe0700e14f400003003a00d11f8100a2
:101d60000b007800b90707000fea9700e04f520018
:101d70000200320060061600e0861e00e04f5700a9
:101d80001a003a008ff297000a85e9008542e800c0
:101d90001fea970085f79f00e44f520003003a00c6
:101da0001a0278000c8abe00100037001a02780070
:101db0000c0a78000d003700d01f8100de060700f6
:101dc000808f5500090032000ff49700e10f4000aa
:101dd00003003200d11f81009c0707000700370075
:101de000e04f540005003a00050037001944780020
:101df000e04f5400c5fe3a000ff497000880fb0046
:101e00004f0778004f06be004f05be004f04be00ce
:101e10000f01b100000006000c00fa00889fbe0010
:101e2000f4ff270000047800d4bf9f008004eb007b
:101e300088bf9f0099bf9f00a8bf9f00240c20006f
:101e400078815700b4bf9f00cfb0970070805700d3
:101e5000c40007000fba9700094a78000fba97002c
:101e6000080052004f04be000080fa000000060087
:101e7000d4c6b3000800fa00889fbe000084fb00af
:101e80008a9fbe00844f500034003600890d220026
:101e90004b062000110009000b84d800720040009e
:101ea0004300dd0000804400810578006022b80016
:101eb0000600200007fe2300aa0020005001be00fb
:101ec0004000be00b30907000002be001100090077
:101ed0008a85d80080057800e9854500c35ddd006e
:101ee0008b8544000203be0084bf9f0095bf9f0006
:101ef000a6bf9f00b7bf9f003b02be002b03be00e2
:101f00000fb897009fb897002fb99700bfb99700f7
:101f1000a00907000002be00110009000a84d800d1
:101f2000010478004344dd00888444000203be00bd
:101f300084bf9f0095bf9f00a6bf9f00b7bf9f00b3
:101f40003902be002903be000fb897009fb8970062
:101f50002fb99700bfb997001d003700ea4f500016
:101f600013003600aa002000890d2200110009008c
:101f70000a84d80001057800690440004355dd005b
:101f80004344dd00088444008a8444006022b80091
:101f90000600200007fe23003800be002801be0016
:101fa0007c0907003902be002903be000800370083
:101fb000840d22004344dd00080442006022b80082
:101fc0000600200007fe23003800be002801be00e6
:101fd000700907004f05be004f04be000080fa00e4
:101fe00000000600d4c6b3000800fa00889fbe00b7
:101ff0008a9fbe00e04f500022003d000040ea00f2
:102000000004fb00844f50000a0034004406200006
:10201000a9002000110009000404d8008a0d220044
:10202000110009008900d800e9004000c308dd0064
:1020300020003700ea4f50000f003400a4002000b9
:10204000110009000404d800840d2200690040003a
:102050004300dd0000004200430cdd0008024200a6
:102060005001be004000be005403be004402be004a
:1020700048090700370037004344dd00840d220083
:10208000310037000004fb00844f5000230034006f
:1020900044062000a9002000110009000404d80013
:1020a0008a022200110009008900d800e9004000de
:1020b000c308dd00810045008b0920008a854500aa
:1020c0003102be002103be003b00be002b01be005a
:1020d000300907000002be00110009000904d80001
:1020e000010478004344dd00080545000203be00fa
:1020f00084bf9f0095bf9f00a6bf9f00b7bf9f00f2
:102100003a02be002a03be000fb897009fb897009e
:102110002fb99700bfb99700d5ff3700ea4f50009d
:1021200007003400a4002000110009000404d800b6
:1021300084022200690040004300dd00c5ff370033
:102140004344dd0084022200080442003800be003f
:102150002801be004f05be004f04be000080fa00fb
:1021600000000600ef05b000889fbe008a9fbe00f9
:102170008c9fbe00000678008e1f78000007eb00e1
:10218000e19f9f0082af9f006000b8006011b8001f
:1021900080a79f0091a79f00a2a79f00b3a79f00c1
:1021a000d9053700ef98970054c2b3008100e800ca
:1021b000e19f9f00844f500006003a0081027800a2
:1021c0008006eb0007c3b30000c2b300b1c2b30086
:1021d0000e0037003c0290000404b20004003200fc
:1021e0001c027800004a7800040ee8000500370061
:1021f0000000fb008c00780050060700e10f400053
:10220000c10532000e07e800bf053700050378005e
:10221000d2c2b30035427800824f5200090032002a
:1022200005003c00804f520008003200814f5200f0
:102230000c003a0007003700874f520009003a00af
:10224000060037000d30a000f0ff37000d00a000a1
:10225000eeff37000d10a000ecff37000d20a000ae
:10226000eaff3700e2826600010032000d00a100a3
:10227000e8826600010032000d20a1008402fb000c
:102280000503b100e98f52000d003e008602780080
:102290008003eb003502fb006a3bb9000403b10088
:1022a000860342001502fb00050378000403b10019
:1022b000e90f5200f7ff360097b79f000a0037007a
:1022c0008002eb0095b79f00a5c2b300854f520076
:1022d00005003a008fab97000603e800470078003e
:1022e00087af9f0090b79f00e4c2b300964f1200e3
:1022f00017003a000de0a00064425200d64f1200d1
:1023000003003200060278008003eb00090037006a
:102310000fa997000603e800c201780082af9f0072
:10232000d3af9f00c7c6b3000d0037006a3bb900aa
:102330008683420004037800b402fb000503b10069
:10234000e98f5200f9ff3600d7af9f00f5ff370045
:102350000002eb000dc0a000d4af9f00f1ff3700da
:10236000860278003542780005037800874f5200d6
:102370002d003200e59f9f00c5c6b300854f520077
:1023800014003c00e8c25200854f52002400320085
:1023900009003c00ecc25200854f52002e00320072
:1023a000ebc24200854f52009a003200e04f5200cb
:1023b0005a053200b800370065c6b300854f520099
:1023c0001f003200e3c24200854f5200b2003a00c3
:1023d0001300370035c7b300854f5200220032008a
:1023e00007003c00e4c25200854f52001700320043
:1023f0008542e800854f5200a7003a0016003700da
:1024000055c7b300854f5200a8003200e3c2420016
:10241000854f5200a0003a00e4579f00100037009b
:10242000e4579f00a3003700f082660004012000fb
:1024300001003200040028008d067200c8ff37003a
:10244000e4579f000da0a0009a003700e4579f00ba
:102450000d60a00097003700e4579f000d50a000ca
:102460000d70a000930037008faa9700e4579f00db
:102470004502780085af9f0004047800e00f520009
:1024800001003a0048302200880278000002eb0088
:10249000010037000402e80065437a00e04f530072
:1024a000fcff3a00840478005fab9700e00f530014
:1024b00003003200890f53000100310086047800c8
:1024c0000002eb009fb39700898f53000100360094
:1024d00009825300e8866600ddaf9f000d0078009a
:1024e000e00f50002c003a008406780004c2b300cc
:1024f00010003700bc0290000504b2000400320056
:102500009c027800844a7800050ee8000700370036
:1025100084bf9f008c007800000220008705070020
:102520000fba9700e10f4000010032000e07e800eb
:102530008d06e900e08f5600eeff3a000082eb00c6
:10254000150037003c0290000404b200090032007c
:10255000080278001c037800b4427800054b78002c
:1025600004047800060ee800e0cf520008003a00ac
:102570000a003700080278008c0078003400fb0065
:10258000040478006d050700e10f400003003200ed
:102590000e07e80001003700840678000902780081
:1025a0008404e900e00f5200e6ff3a000d027800d3
:1025b000dfa89700e08f5000d30432008406780033
:1025c00004c2b30010003700bc0290000504b20042
:1025d000040032009c027800844a7800050ee8006e
:1025e0000700370084bf9f008c00780000022000a5
:1025f000520507000fba9700e10f400001003200ba
:102600000e07e8008d06e900e08f5600eeff3a0065
:10261000bd0437000fa99700f082660042027800df
:1026200082af9f0004007800cf80de0001017800b7
:102630008201780090af9f00a1af9f00b2af9f00d2
:10264000c3af9f004800de00480add0000007200b2
:10265000e0579f00e08f520009003200e04f500029
:1026600007003200e14f400005003200afd2970072
:10267000f0579f00855f9f0029002000030037006e
:102680002fd3970019002000f6579f0078f92f00ec
:102690000f04440084ff3700e4579f0068f92f00bf
:1026a0000f044400190020007fff3700e4579f000b
:1026b0000d0cb30004702000048266006502320035
:1026c000040021000482660002003200670020003e
:1026d000d7af9f0070826600090032000faa9700f2
:1026e0004401be004400be0084af9f0090af9f0035
:1026f000a1af9f00b2af9f00c3af9f000a00370099
:102700008faa97004500be0085af9f00090707000c
:102710000002be000203be0094af9f00a5af9f0061
:10272000b6af9f00c7af9f006022b8006033b8000b
:102730001fa89700afa897003fa99700cfa99700bf
:102740004e060700e00f50000a003d001fa897004a
:10275000afa897003fa99700cfa9970003f0a20068
:1027600090af9f00a1af9f00b2af9f00c3af9f008b
:102770003d00b3000002eb001fa89700afa8970030
:102780003fa99700cfa99700d48f9f006022b8007f
:102790006033b8009d060700e00f5000340032009f
:1027a000a4f92f000f0242001fa89700afa89700be
:1027b0003fa99700cfa99700590707005f889700a6
:1027c000a40020000000e9006300b9001100090026
:1027d0000400d800d08f9f00e00f500002003d00a1
:1027e0000000e900d08f9f005f8c97000840ea004e
:1027f000fcfd07001faa9700afaa97003fab970008
:10280000cfab9700630707000002be000203be00c3
:1028100084a79f0095a79f00a6a79f00b7a79f002a
:102820006022b8000600200007ff230013060700ff
:10283000e00f500002003d000804e9000b003700e3
:102840006022b80006002000470224000fa0970075
:102850009fa097002fa19700bfa197000c0607002b
:10286000e00f5000020035000804e800d88f9f00f8
:10287000dfaa9700f88f52000f003c000540780057
:102880007bfd07000002be000203be001fa89700e8
:10289000afa897003fa99700cfa997007a05070036
:1028a0000002be000203be0094af9f00a5af9f00d0
:1028b000b6af9f00c7af9f005f8c9700e90f540031
:1028c00015003c006022b8006033b8001fa89700d4
:1028d000afa897003fa99700cfa997004b06070024
:1028e000e00f5000320032001fa89700afa89700f9
:1028f0003fa99700cfa99700ad060700e00f500051
:10290000e08f5800e00f5900e08f590028003a008e
:10291000e10f5400260034000400200005002e00c2
:10292000b6e02200170124000fa097009fa0970097
:102930002fa19700bfa19700d0050700e00f50001e
:1029400002003d007304540001003700720454007b
:10295000d88f9f002f589700a2fd07000002be00ed
:102960000203be001fa89700afa897003fa99700d9
:10297000cfa9970084a79f0095a79f00a6a79f00b7
:10298000b7a79f00c7050700890607000205be001c
:102990000004be006000b8006011b80090af9f0056
:1029a000a1af9f00b2af9f00c3af9f0017003700d9
:1029b0001fa89700afa897003fa99700cfa997003d
:1029c0007b0607000205be000004be00a906070042
:1029d0000002be000203be001fa89700afa8970028
:1029e0003fa99700cfa997005f0707000002be002c
:1029f0000203be0094af9f00a5af9f00b6af9f003b
:102a0000c7af9f000002eb00d48f9f000119220086
:102a100010c0b300080037003102be003103be0011
:102a20000440e10005c8e10006d0e10007d8e1005c
:102a3000030039000040e800f44f5000f6ff3a0070
:102a40009fb297005f8a97005fab970004825200a5
:102a5000e0579f00860252000002fb0004825200f1
:102a600094b79f00e00f5300020032000402e90017
:102a700094b79f0063826600030032009fb3970003
:102a80008703e90097b79f00648266004500320023
:102a900062826600e1826600e00f5200110032009f
:102aa0003c0290000404b200080032001c037800cd
:102ab000b4c2b300e08f52000100320004c2e8004b
:102ac000044b7800060ee80015003700b002200025
:102ad000e08f5200010032000080e8008c00780096
:102ae0000c003700e08f5200200032003c029000c2
:102af0000404b200050032009c02780004c2b30056
:102b0000844a7800050ee800050037008c00780044
:102b10000002200009040700e10f4000130032000a
:102b20000e07e800110037003c0290000404b200d8
:102b3000040032001c027800054a7800040ee80008
:102b400007003700f5b79f008c00780000032000d5
:102b5000fa030700ffb29700e10f400001003200c6
:102b60000e07e8008904e90006003700c8a79f00a7
:102b7000d9a79f00eaa79f00fba79f009fb49700db
:102b800005c3b300e08f5400e7ff3c0099b79f00f6
:102b90004fa49700dfa497006fa59700ffa59700ab
:102ba0006e003700688266001f003a00110037008f
:102bb0003c0290000404b200040032001c027800c1
:102bc000054a7800040ee80007003700f5b79f00bb
:102bd0008c00780000022000d8030700ffb29700a5
:102be000e10f4000010032000e07e8008904e9000f
:102bf00006003700c8a79f00d9a79f00eaa79f003b
:102c0000fba79f009fb4970005c2b300e08f54005c
:102c1000e7ff3c0099b79f004fa49700dfa49700ff
:102c20006fa59700ffa5970062826600e1826600ab
:102c3000e00f5200110032003c0290000404b20088
:102c4000080032001c037800b4c2b300e08f5200c9
:102c50000100320004c2e800044b7800060ee800d0
:102c60003d003700b0022000e08f5200010032002a
:102c70000080e8008c00780034003700e08f5200bc
:102c8000360032003c0290000404b200050032001d
:102c90009c02780004c2b300844a7800050ee80064
:102ca0002d0037008c00780000022000270037003c
:102cb0003c0290008502fb000404b20013003200c5
:102cc00082182200c32add00850241009c007800a2
:102cd0005503be004502be00c1a79f000800be000c
:102ce0000a01be0053070700a400200005002000d1
:102cf0006033b800560707004fa2970005c3b30022
:102d0000054a4000040ee800130037008618220030
:102d1000c32add00850243000800be000a01be0090
:102d20005503be004502be0042070700a400200074
:102d3000050020006033b800450707008c007800cc
:102d40000403200000024200040078007b03070017
:102d5000e10f4000010032000e07e8006f529700bb
:102d60008442e900e5579f00e04f5200d0ff3a004f
:102d7000110037003c0290000404b200040032004d
:102d80001c027800084a7800040ee80005003700ad
:102d90008c0078000003200068030700e10f40006a
:102da000010032000e07e8005f8a97000402e90084
:102db000d48f9f000100370008c3b3005f8a9700db
:102dc000e00f5200ebff3c00dfab9700f28f5300a7
:102dd0000300340024c1b300e4579f000200370011
:102de0002fd89700e0579f006f529700dfa89700f9
:102df0000403fb0006835000c6a79f00e04f52006b
:102e00000e0032003c0290000404b20005003200c3
:102e10001c027800e5c2b300054a7800040ee80001
:102e2000050037008c007800e00220004303070013
:102e3000e10f4000010032000e07e8006f509700dc
:102e400068fc07000002be000203be001fa8970036
:102e5000afa897003fa99700cfa99700cd0507001d
:102e600053050700350037003c0290008502fb0047
:102e70000404b2001300320083182200c32add00cc
:102e8000858241001c0178005503be004502be004a
:102e9000d2af9f000800be000a01be00e506070091
:102ea000a4002000050020006033b800e8060700f9
:102eb0005faa970005c3b300054a4000040ee8006e
:102ec0001300370086182200c32add008502430064
:102ed0000800be000a01be005503be004502be0048
:102ee000d4060700a4002000050020006033b800cd
:102ef000d70607008c00780004032000000242007f
:102f0000040078000d030700e10f400001003200cb
:102f10000e07e800ef539700801822000702fb001d
:102f20004322dd00040240000800be000a01be008a
:102f30005403be004402be00c50607006f5297004e
:102f40000205be000004be008442e900e5579f0070
:102f5000e04f5200c4ff3a0011003700bc0290005d
:102f60000504b200040032009c027800844a780014
:102f7000050ee8000700370084bf9f008c00780032
:102f800000032000ed0207000fba9700e10f400098
:102f9000010032000e07e8008904e900060037004e
:102fa000cfa49700d0af9f00e1af9f00f2af9f008a
:102fb00083b79f0004c3b300e08f5400e7ff3a00db
:102fc0005fac9700efac97007fad97008fb597008f
:102fd000e88666004c0232009fb09700e08f5000f8
:102fe000490234000802be000a03be000dc2b3004d
:102ff000810478003c0090000004b200040032001c
:103000001c0078000d487800000ee8000d00370025
:1030100084bf9f00f5b79f00d6b79f00e7b79f001a
:103020008c00780000022000c40207000fba97004d
:10303000ffb297005fb39700efb39700e10f400036
:10304000010032000e07e8008904e900e9ff3a00b8
:103050002d0237008d027800050cb2002a003a00dc
:10306000e08f560005003d000fa997004205be0005
:103070004204be0082af9f001600370070826600d7
:103080000e0032000fab97004602be00c4979f00af
:10309000d5979f0086af9f00160290004fa2de00da
:1030a000e4979f00f4979f004f949700df94970058
:1030b0006f959700ff959700060037000fa89700bf
:1030c0004004780080af9f00cfc4de00090578007f
:1030d0008a057800e00f5400e08f5c00e00f5d008f
:1030e000e08f5d0023003d006022b8006033b8002f
:1030f0003d00b3000804520089845a000a055b00b1
:103100008b855b001b003700e08f560005003d00fb
:103110008fa897004105be004104be0081af9f000b
:1031200014003700f08266000c0032008faa97006e
:103130004501be00a4979f0082979f0093979f0030
:10314000b4979f0085af9f000f9497009f949700be
:103150002f959700bf959700060037008fab97001b
:103160004704780087af9f00090020000a00200074
:103170000b0020005fa89700e00f500009003a0004
:1031800011002000d1af9f00e00f5400e08f5c00e1
:10319000e00f5d00e08f5d00020032000001eb00f7
:1031a000d2af9f008d01780004042000030cb20010
:1031b00093af9f00848f51002c00320003003c002d
:1031c000e08f5100080032003c0037000408200066
:1031d0009faa9700848f520010003200040c200038
:1031e000848f520035003a000119220010c0b3004c
:1031f0003102be003103be000440e10005c8e10019
:1032000006d0e10007d8e1002b0039000040e800bb
:10321000f44f5000f6ff3a002700370010c0b3000b
:1032200004012000050020006033b8000440e100e4
:1032300005c8e10006d0e10007d8e1001e00390012
:10324000410020000402d0008582d2000683d20013
:103250008783d2008100e900faff3a000040e800cd
:10326000f04f5000f1ff3a001300370010c0b300d8
:1032700084002000050020006033b8000440e10015
:1032800005c8e10006d0e10007d8e1000a003900d6
:10329000320020000402d0008582d2000683d200d2
:1032a0008783d2000201e900faff3a000040e800fb
:1032b000f54f5000f1ff3a00e0579f00ef519700a3
:1032c000dfaa97000302fb00850f520002003d00b9
:1032d000e5579f00040037005fab9700840f530051
:1032e00001003d00d4af9f009fb39700e08f5300d3
:1032f0000400320063826600020032008703e900a6
:1033000097b79f0004002400048266000900320081
:103310001fb09700dfa89700810f50000300340012
:103320000100500090b79f00020037000001eb0041
:1033300092b79f00ef5197008002eb000302fb0061
:10334000c5a79f001fb39700840f530002003400ed
:1033500004025300c4a79f00648266004500320047
:10336000e282660061826600e08f52001100320046
:10337000bc0290000504b200080032009c027800f4
:10338000b6c2b300e00f52000100320006c3e800ed
:10339000864a7800050ee80015003700b0022000cc
:1033a000e00f5200010032000080e8008c0078003d
:1033b0000c003700e00f52000e0032003c0290007b
:1033c0000404b200050032001c02780005c2b300fc
:1033d000054a7800040ee800050037008c007800ec
:1033e00000022000d5010700e10f4000010032007b
:1033f0000e07e800cfa39700e08f53006300320070
:1034000098b79f00a9b79f00bab79f00cbb79f009e
:1034100004c3b30087047800bc0290000504b20026
:10342000040032009c027800844a7800050ee8000f
:103430000700370084bf9f008c0078000003200045
:10344000be0107000fba9700e10f400001003200f3
:103450000e07e8008904e900efff3a00c9a79f00c2
:103460001fb49700afb497003fb59700cfb5970052
:1034700046003700cfa09700e08f50001e003200ba
:10348000688266001c003a0098b79f00a9b79f00a9
:10349000bab79f00cbb79f00cfa4970004c2b30078
:1034a000bc0290000504b200040032009c027800c7
:1034b000844a7800050ee8000700370084bf9f00ab
:1034c0008c007800000220009c0107000fba9700d2
:1034d000e10f4000010032000e07e8008904e90016
:1034e000efff3a00c9a79f001fb49700afb4970041
:1034f0003fb59700cfb59700e28266006182660013
:10350000e08f520011003200bc0290000504b200ae
:10351000080032009c027800b6c2b300e00f5200ef
:103520000100320006c3e800864a7800050ee80074
:1035300015003700b0022000e00f520001003200f9
:103540000080e8008c0078000c003700e00f52008b
:103550000e0032003c0290000404b200050032006c
:103560001c02780005c2b300054a7800040ee8008a
:10357000050037008c007800000220006f01070072
:10358000e10f4000010032000e07e800dfa89700bd
:10359000851822000102e90098b79f00a9b79f0093
:1035a000bab79f00cbb79f004221dd006323b9006b
:1035b000929f9f004322dd00860178008502420031
:1035c000839f9f00f59f9f00708266008d027800a8
:1035d000f48f9f000502b200e58f9f00a300370023
:1035e000dfa897001fa997008100e90003042000cd
:1035f000d1af9f00830f51007300320003003c00e5
:10360000e00f5100080032007e003700040820005f
:103610009faa9700848f520056003200040c2000ad
:10362000848f520077003a00e08f56001f003d0063
:103630007f9b97001fb09700afb097003fb19700f6
:10364000cfb197003604be002605be000802be00ba
:103650000a03be00f70407000802be000a03be000a
:10366000e0579f000000fb00cf80de0001017800e2
:1036700082017800580507001fb29700afb297008b
:103680003fb39700cfb397000002520081825a00e7
:1036900002035b0083835b0094b79f00a5b79f0084
:1036a000b6b79f00c7b79f002e003700ff8a97006c
:1036b000e08f5200220032007f9b97001fb29700dc
:1036c000afb297003604be002605be000400be005f
:1036d00084bf9f00f5b79f000801be00a3f6070056
:1036e0000801be00e0579f000000fb00cf80de0015
:1036f0001f0407000fba9700ffb2970000015200a5
:1037000081815a000002eb00a29f9f00b39f9f009f
:10371000d49f9f008001eb00c39f9f002f989700cc
:10372000bf9897004f999700df99970090b79f0037
:10373000a1b79f00b2b79f00c3b79f000900370031
:10374000ff9897001fb1970011027800110009003f
:103750000481d800a4002000110009000480d800d2
:10376000e1579f00ef5197000343b000e3579f00dc
:1037700024003700342f2200ef8a9700e08f520098
:1037800001003200242e22001fb09700afb0970036
:103790003fb19700cfb197001f9b97000603e90048
:1037a000050033008301d1000281d3008180d30062
:1037b0000080d300f9ff37006f006000644078009c
:1037c000e0579f000f0037001fb29700afb297007d
:1037d0003fb39700cfb397000f9897000000e90020
:1037e000050033008703d1000683d3008582d30010
:1037f0000482d300f9ff3700674262000443b0003f
:10380000e4579f003c0290000404b200070032001d
:103810009c0278006f529700844a7800050ee800f9
:10382000e04f520007003a0007003700ef509700c2
:103830000100fb008c007800c0000700e10f400091
:10384000010032000e07e8001f9997008f9997003a
:103850007f9a970064015100e38151006802520091
:10386000929f9f00839f9f00f49f9f00dfaa970075
:10387000e08f52005aff3a001fb49700afb4970090
:103880003fb59700cfb59700e88666001e0032006e
:103890004fa39700e00f53001b0034000802be0046
:1038a0000a03be00cfa497000dc2b3003c009000f5
:1038b0000004b200040032001c0078000d487800bb
:1038c000000ee8000d00370084bf9f00f5b79f0091
:1038d000d6b79f00e7b79f008c0078000002200059
:1038e000960007000fba9700ffb297005fb39700ea
:1038f000efb39700e10f4000010032000e07e8002f
:103900008904e900e9ff3a00ef9b9700174078002f
:10391000e0579f00e04f500022fa3a000e00780076
:103920004f0778004f06be004f05be004f04be0093
:10393000ef05b10000000600881f78000004780041
:1039400038029000f1026200e18f520006003a0056
:10395000840278000520b20008003200980290002e
:10396000e08f520005003200380290000080eb002a
:103970000440a00034049800200037000490a10007
:103980003404980018029000e00f52000700340041
:103990000402e900140498001802780094427800a8
:1039a000040ce8000580fb00050037003802900099
:1039b0000404b200ecff3a00080078001100070090
:1039c000380290000408b2000c003a00fa0f5000d0
:1039d00008003a0028029000e00f5200e2ff320097
:1039e00018029000180ce9000402e8001404980082
:1039f000ddff3700ed0f5000e2ff32004f0478008a
:103a0000000006000200fa00889fbe000004780053
:103a10000002eb008a9fbe00140498000080eb00b7
:103a2000380290006102620040003200e43f220050
:103a30008042eb0094cf12000f0032000b332200c3
:103a40002a102000c9fd2f008b8444003902900009
:103a50002410b2008a0f520002003a0009007800d8
:103a600099000700ec8444008b8f5400f7ff3a0064
:103a7000e43f2200004aeb0058019000e00f5100a3
:103a80000e003a0012049800ea805700120020004d
:103a900048009000f3f20700e10f500003003a00e5
:103aa0006ff297000480fb0020003700380290007e
:103ab0000440a0003404980013003700a8009000d0
:103ac00048009000e7f2070010049800e00f500053
:103ad00003003200e10f40000d003a000300370000
:103ae000380290000440a000020037003802900025
:103af0000403b30034049800a80290000002eb0015
:103b0000050c7800140498000080eb0007003700d3
:103b1000280290000000e900040c780010049800ce
:103b200094427800040ce8000580fb004f05be00bd
:103b30004f04be000080fa0000000600889fbe000f
:103b4000010478008084eb0038029000e2026200f9
:103b50003b00320004037800980290000620b20077
:103b600002003a00e08f520035003a000490a000b5
:103b70008004780034049800f90fb200e08f5200fe
:103b800002003a00a8029000050c7800ea8f540069
:103b900005003a000408b20003003a0088007800eb
:103ba000d0002000e5ff070018029000d802900026
:103bb000850f52000b0032000402e80015c0b3006c
:103bc0001404980018027800094a7800040ce800f0
:103bd000e43f2200054a7800ea8f540018003a00ba
:103be0000500370009407800880078006000070071
:103bf0008004780012003700380290000410b200f0
:103c00000f00320018019000a800900048009000ba
:103c1000c8f2070018029000840f50000400320020
:103c2000380290000403b300340498008084eb0051
:103c30000002eb001404980028029000040c7800a5
:103c4000090078004f04be0000000600e10f4000ac
:103c50001c003200310290001420b200e10f52002b
:103c600015003a0021039000e00f530012003200cb
:103c700011029000d1029000850f52001000320016
:103c800091027800868f520002003a008508e80011
:103c9000020037000402e800940098009102e90055
:103ca00031029000850878000404b20005003a0053
:103cb000804a7800000006000080eb00000006004b
:103cc0000080eb0000000600881f780000047800e8
:103cd00038009000000278001420b200e10f52007a
:103ce00005003a000002eb0014049800280290003e
:103cf000040c78001900370080027800242020008e
:103d00002520b2000000eb00848f520016003a001c
:103d1000a8009000808f500013003200180190001e
:103d2000800f5100100032004800900081f207001f
:103d300018029000840f50000300320038029000f7
:103d40000403b30034049800380090000002eb0034
:103d50001404980028029000040c78000002b200bd
:103d6000010032000080eb004f04780000000600e4
:103d70000200fa00889fbe0001047800a0ff9f00a7
:103d800038029000840278000504b200020032007c
:103d90000000fb0035003700e202620005003a0037
:103da0000403b30015049800340498000080eb006d
:103db0002e003700d8049000e08f540006003a002f
:103dc00012002000e68057004800900059f20700da
:103dd0001904980023003700a8029000e08f5200d9
:103de00008003a00254022000430a0002504980075
:103df000050c780034049800250020005504980034
:103e00001504980018019000a80090004800900048
:103e100048f20700280290008082eb001504980009
:103e2000affa9700054a7800040ce8002ffa9700d3
:103e3000ea4f52000b003a00380290000410b20022
:103e40000800320018019000a8009000480090007f
:103e500038f207000002eb00a8029000140498005a
:103e6000050c78002ffa97000400fb004f04be00f9
:103e70000080fa000000060000c0da000000060022
:103e800000c0da00000006002800fa00889fbe008b
:103e90008a9fbe008c9fbe00070678008786690057
:103ea0000c003b00030478008704780008f0a100b0
:103eb00009f0a100840f5000858f5800860f59002b
:103ec000890f5c00030033000cf0a20001003a00ef
:103ed0000cf0a100fe0007006400e1005f0032006a
:103ee000780147006408e100610032006c0147007e
:103ef000748557003200be001201be003a04be00b5
:103f00001a05be001e039000be0a900085035300f0
:103f100006003d000004fd008104fd000205fd00d7
:103f20008305fd008703ea00050378000df8a30070
:103f30000400320060041400e0841c0060051d00d1
:103f4000e0851d006022b8007d0320000d38e100ef
:103f50008006eb000b0039004433dd00f300b200b3
:103f60008301730039003700848272000d027800eb
:103f7000e10664008b85d1000a85d3008984d300d3
:103f80000884d3008703e900f7ff3b0008004000e6
:103f9000898048000a0149008b81490004003b00e8
:103fa00060001000e080180060011900e081190035
:103fb0000358a300090032008d82720084827200cf
:103fc000610260008301d1000281d3008180d300af
:103fd0000080d3000603e8001b0037000348a3005d
:103fe00017003a000600e000170034000603e9005d
:103ff0000d00a30000004800818048000201490034
:10400000838149000348a3000f003a000600e00046
:10401000090034000603e9000000400081804800e8
:10402000020149008381490001003a000003eb00ce
:104030000348a300f5ff32006022b80002003700f9
:1040400084827200618266007500070003f0a1009f
:104050000cf0a70003f0a000b10037006401470096
:104060006408e10002003a000df8a300a9003a003c
:104070003200be001201be00a90037008f1fd10020
:10408000fe0207008f87e9000000e0000000060044
:10409000809feb00f90207008f87e9000000e00035
:1040a000000006002800fa00889fbe008a9fbe001c
:1040b0008c9fbe0003866b00850007006400e10052
:1040c000440032006408e1004a0032006100e1006f
:1040d000460032006108e10049003200ec0647006a
:1040e0006000b8003d02be003d03be00f4865700ec
:1040f0006011b8003d04be003d05be007d032000f8
:104100000b0037000000a0008d06e900130032000c
:104110000402420085824a0006034b0087834b005d
:10412000000040008180480002014900838149006d
:104130000802520089825a000a035b008b835b00ed
:10414000f0ff3b000802420089824a000a034b004c
:104150008b834b008d06e900edff3a0084827200ec
:1041600086827200f707b200878272000100320077
:10417000150020001e0490003e0b90000603540022
:10418000e63fb0000368a300070032000000a7006c
:104190000500a0008301d1000281d3008180d300fb
:1041a0000080d3000603e8008301d1000281d30020
:1041b0008180d3000080d3000002eb000482d20093
:1041c0001700070003f0a1000cf0a70003f0a00007
:1041d00053003700640247006408e1004d003200dc
:1041e0003400be003401be00f6ff37006108e10074
:1041f000480032006011b8006000b800f1ff3700dd
:1042000003ff270002002000fbff3700801feb00a8
:104210009a0207008f87e9000000e0000000060016
:104220001800200057002000080453000d003d0036
:104230000600200097fc2f000740e1001e0034001c
:1042400084827200610260008301d1000281d30088
:104250008180d3000080d3000804e800f8ff3a0012
:104260004700200061046000050474000404640039
:104270000d00320061004000e0804800600149000c
:10428000e081490003b8a500070032000603e800fa
:104290006538e10004003a008301d1000281d300b7
:1042a0008180d3000080d300f87f20000830e10037
:1042b00003003500080378006000b8006011b80002
:1042c0004433dd00f300b2008301730000000600f8
:1042d000680447000294be000094be00fc0447003e
:1042e0008694be008494be0009007800ac020700ea
:1042f00008007800aa02070099007800814f70003a
:104300000b003b000800be00850207004f00b10013
:1043100003003700f3ff2700f2ff2f006110b90000
:104320004f06be004f05be004f04be000080fa00dd
:104330000000060081037800f6f207000001be00cd
:104340006000b8000478a30013003a006220e10086
:1043500015003e000d0039008301d1000281d30019
:104360008180d3008301d1000281d3008180d300fa
:104370008301d1000281d3008180d3000538b000d1
:10438000c42add00f300b2008381720007f0a700a9
:1043900003f0a00000000600f3ff2700f2ff2f004b
:1043a0006110b900fbff370003ff2700f7ff37005c
:1043b0001400fa00889fbe008a9fbe008c9fbe003a
:1043c0000004be000205be00680047000a90be005f
:1043d0000890be00720207000070a7000bf0a10059
:1043e0000bf8a30020003a009e0990000e099000ef
:1043f000fe0090006e0090009e029000344320006a
:1044000084825200c6ff32000a003c00b4fc2f0038
:104410000428e100140034008301d1000281d3009c
:104420008180d3000080d3008502e800faff3a00c3
:10443000bbff3700b40020000428e10007003c0067
:10444000000040008180480002014900838149004a
:104450008502e900faff3a00b1ff370003002800a7
:1044600002002000010037006011b8006000b800b1
:10447000abff3700889fbe0000827000040271000d
:10448000048271002400320036432000c500200061
:104490008383cf000a0039000541b1008283cf0039
:1044a000070039000541b1008183cf0004003900c5
:1044b0000541b1008083cf00010039000541b10002
:1044c00085c353006022b800120032000a003b008e
:1044d00084827200610260008301d1000281d300f6
:1044e0008180d3000080d3000603e8008743e80002
:1044f000f7ff3a00070037000000400081804800c5
:1045000002014900838149000603e9008743e9006d
:10451000f9ff3a0042ff07004f04be00000006000a
:104520001400fa00889fbe008a9fbe008c9fbe00c8
:10453000040678000004be000205be0068004700c3
:104540000a90be000890be00150207006200e1005c
:104550000800be000a01be00040020000b003a0063
:104560001e029000e43fb1006e009000fe0090003b
:104570000e0990009e099000f300b20005fe230092
:10458000858171000bf0a70003f0a000040e7800f5
:1045900063ff37002800fa00889fbe008a9fbe0094
:1045a0008c9fbe0003866b0049ff07000028a30014
:1045b00064003a000128a30067003a000008a30045
:1045c00062003a000108a30065003a001e00900056
:1045d000be08900081064000ed3fb100f480570016
:1045e000ee019000111ab8008e099000311bb8003e
:1045f0009e099000311cb800511db800f485570089
:1046000046000700fe0190003a0007008b85e80095
:104610003e0007008e09900040000700ee01900068
:10462000340007008b85e800380007008e099000f1
:10463000400007009e0990001b18b8008904400044
:104640000a854800fe019000340007008b85e800d1
:1046500038000700ee019000300007008e0990003e
:104660001b18b800890440000a8548000a98a30076
:1046700008003a000402420085824a0006034b000b
:1046800087834b0008044c0089844c000a054d00c8
:104690008d06e90084827200850273004c3add00c9
:1046a000850272000100320015002000443ade004d
:1046b0001400b2004538de00cb45dd000b00700071
:1046c000c540de00cb4ddd008b8070004549de002b
:1046d000cb55dd000b017100c551de000d037800e4
:1046e000cffe070003f0a1000cf0a70003f0a0002c
:1046f0000bff37001b18b8008502400006834800f6
:10470000e0834b0060044c00070037001b18b80022
:104710000603400087834800faff37001b18b800e3
:104720008703400008844800e0844c0060054d0089
:10473000000006001b18b8000804400089844800e7
:10474000faff37000108a300f2fe3a005800be004d
:104750005801be00e3ff37000008a300edfe3a0059
:1047600009047800f9ff370007f0a200c6fd370002
:10477000020ab900001bb9000200b8008100420023
:104780008100430000000600889fbe008a9fbe0093
:104790003004be002005be000404440085844c00a3
:1047a00006054d0087854d000898be000a90be00a2
:1047b0000440e10005c8e10006d0e10007d8e100af
:1047c00002003100680040001008e8004f05be00fc
:1047d0004f04be00000006001000fa00889fbe00d3
:1047e0008a9fbe00110020000605be000404be0022
:1047f0003002be002003be00c4b79f00d5b79f00a3
:10480000e6b79f00f7b79f000802520089825a005e
:104810000a035b008b835b0084bf9f0095bf9f00f2
:10482000a6bf9f00b7bf9f000498be000698be00b9
:104830004fb29700dfb297006fb39700ffb39700b6
:104840000820e10009a8e1000ab0e1000bb8e1008e
:10485000010039008000eb004f05be0010881000f9
:104860004f04be000080fa00000006001400fa00a9
:10487000889fbe008a9fbe008c9fbe000006eb0092
:104880003e000700ccb79f00bcb79f00acb79f00ad
:104890009cb79f008cb79f000605be000404be00b5
:1048a0000d0420004fb39700bfb29700860343006a
:1048b0002fb29700e00f530004003d003d000700b9
:1048c0000f004000b0ff0700030037003900070069
:1048d0000f004000c0ff0700cfb2970095bf9f00b8
:1048e000e08f5200090035002b0007001400200063
:1048f000050020006033b800000072008180720063
:1049000002017300838173001c0007000c06e8009d
:104910008d0f5600e3ff3a001fba9700e00f5200d8
:1049200005003d000802be000a03be0000fe2f0085
:104930000f00400094ff07004faa9700e00f5200bd
:1049400008003a000fb497009fb497002fb5970066
:10495000bfb59700d8b79f00e9b79f00fab79f008f
:104960008bbf9f000c0007004f06be004f05be0026
:104970004f04be000080fa0000000600010007009e
:104980000000060090b79f00a1b79f00b2b79f003c
:10499000c3b79f00000006000100070000000600ea
:1049a0001fb09700afb097003fb19700cfb197000d
:1049b000000006004f2bde00f9ff0700868373001e
:1049c000858242004f23de00a7b79f0086827200d7
:1049d0000402420095b79f00ffaa97004f2bde000c
:1049e000858242000602720084b79f006faa97007a
:1049f0004f23de000402420086827200f5af9f0062
:104a00004f18de0000027200e5ff0700e4af9f00d0
:104a10000000400081804800020149008381490074
:104a20000802be000a03be00d6ff070000fe2f00ea
:104a300000000600881f780018002000881f7800fa
:104a40008aff07008f87e9004f0478000000060006
:104a5000801feb0085ff07008f87e900000006003c
:104a6000889fbe008a9fbe00e00f5000e08f580074
:104a7000e00f5900e08f59000c003d006044b80081
:104a80006055b8000000540081805c0002015d00a8
:104a900083815d00180020001500070008003d001c
:104aa000180007000004eb00050037000004eb00cd
:104ab0000f00070002003d00120007001800200050
:104ac000dcff0700e00f5400060032006022b8004f
:104ad0006033b8000000520081805a0002015b0080
:104ae00083815b004f05be004f04be00000006003e
:104af000e00f5200e08f5a00e00f5b00e08f5b0098
:104b0000000006006044b8006055b800040254007c
:104b100085825c0006035d0087835d00000006005f
:104b2000889fbe008a9fbe008c1f7800e00f500057
:104b3000e08f5800e00f5900e08f59000d003d0054
:104b40006044b8006055b8001c002000000054000c
:104b500081805c0002015d0083815d000820e1002e
:104b600009a8e1000ab0e1000bb8e1000d003d002a
:104b7000080037000006eb00e00f5200e08f5a00fb
:104b8000e00f5b00e08f5b0006003d006044b80072
:104b90006055b8000402540085825c0006035d0085
:104ba00087835d00aaff0700e00f56000600320071
:104bb0006022b8006033b8000000520081805a00c3
:104bc00002015b0083815b004f0678004f05be0049
:104bd0004f04be0000000600889fbe008a9fbe00f2
:104be0008c1f78000006eb00e00f5000e08f5800ab
:104bf000e00f5900e08f590007003d006044b80005
:104c00006055b8001c0020000000540081805c004a
:104c100002015d0083815d00e00f5200e08f5a00c9
:104c2000e00f5b00e08f5b0007003d006044b800d0
:104c30006055b8000c00a2000402540085825c009c
:104c400006035d0087835d007c000700e00f5600cf
:104c5000060032006022b8006033b8000000520045
:104c600081805a0002015b0083815b004f0678005f
:104c70004f05be004f04be0000000600889fbe0026
:104c80008a9fbe008c9fbe000404be000605be00c5
:104c9000809fbe00829fbe002f00070004067800a0
:104ca0000800be000a01be002b0007008406780041
:104cb0004f03be004f02be008d4f76007fb09700bd
:104cc00013003300f0ff2f008b8f6b0006003b00ba
:104cd0000d0666000c00a7000a00370007f0a600ca
:104ce000100020000a003700880f5200898f5a00f8
:104cf0008a0f5b008b8f5b000300390010002000df
:104d000001003e000000200007f0a7000000ea00bc
:104d10004f06be004f05be004f04be000000060057
:104d2000e48240001078a3000700320064024000d3
:104d30001178a3003400be001401be00040032004c
:104d40000330a700000006003500be001501be00bc
:104d50000330a0000000060005ff27000582610067
:104d6000070032000428e1000100320024000500a1
:104d70000600070001003a00440005000408050091
:104d800002000700f9ff3a00140005006f8261007d
:104d90008102700085027100850272000000060029
:104da000800078005002be005003be004439de008f
:104db000f700b200f37f2000030161000900320018
:104dc0000218e10016003a008501720083017300a9
:104dd000838173000008200015003a004000200085
:104de0001300370085017200830173008381730013
:104df00005003a0004a8be0006a8be00100020006e
:104e00000b0037000201e9000402420085824a00db
:104e100006034b0087834b000748a300f9ff3200cd
:104e20000740a00004a8be0006a8be002000200085
:104e3000800098009200980000000600889fbe0045
:104e40008a9fbe008c9fbe000404b8000506b8000f
:104e50008904460060854e000606b8000a05460033
:104e6000e0854e000706b8008b054600040eb8002a
:104e7000890446000a854e00e0854d00050eb80005
:104e80000a0546008b854e00060eb8008b054600cd
:104e90000416b8000a0546008b854e000516b800ba
:104ea0008b054600041eb8008b0546000800be00b6
:104eb0000a01be004f06be004f05be004f04be00f3
:044ec00000000600e8
:020000040000fa
:104ec4000c070000574500004c4300004f4d000004
:104ed40045200000746f0000207400006865000025
:104ee4002053000065720000436f00006d20000035
:104ef400707200006f7400006f6300006f6c00003c
:104f0400206f00006e200000652d00005075000029
:104f1400636b00000d0a0000746800006520000047
:104f240045500000464c00002065000064750000f8
:104f340063610000746900006f6e0000207200005d
:104f44006f6200006f74000020740000797000002c
:104f5400652000002248000022200000666f000047
:104f640072200000686500006c7000000d0a0000eb
:104f7400006100002c250000642c00002564000062
:104f84002c250000640d00000a000000612c0000c4
:104f9400302c0000302c0000300d00000a0000000e
:104fa400622c000025640000202800002564000015
:104fb40025250000290d00000a000000622c0000d5
:104fc400256400000d0a0000004200002c250000aa
:104fd400640d0000006200000d0a00000063000080
:104fe4002c250000640d00000a000000442c000081
:104ff400256400002c250000640d000000640000fe
:105004000d0a0000006500002c250000642c00003f
:10501400256400000d0a0000004600002c25000055
:10502400640d0000006600000d0a00000067000027
:1050340020490000522000006368000065630000fe
:105044006b2000003a200000307800002578000032
:105054002c2000006164000064720000657300008d
:10506400732000003a20000030780000257800000a
:105074002c2000006461000074610000203a0000ec
:105084002030000078250000780d00000a000000a0
:10509400672c0000256400002c250000642c00000f
:1050a400256400000d0a0000006700002c30000099
:1050b4002c3000002c3000000d0a0000000a000013
:1050c40000220000412200002020000020200000d7
:1050d40020200000202000002020000020200000cc
:1050e400202000002041000063630000656c000084
:1050f400657200006f6d0000657400006572000049
:105104000d0a000000220000422c000023220000af
:10511400202000002020000020200000202000008b
:105124002020000020200000204200006f640000c6
:10513400792000006c65000064200000303d000010
:105144006f66000066200000313d00006f6e0000b5
:10515400203200003d6900006e7600006572000098
:10516400736500000d0a00000022000062220000a6
:10517400202000002020000020200000202000002b
:1051840020200000202000002020000020420000f9
:1051940061740000746500007279000020760000dc
:1051a400616c0000756500000d0a0000002200001b
:1051b40062220000202000002020000020200000a7
:1051c40020200000202000002020000020200000db
:1051d40020420000617400007465000072790000d0
:1051e4002073000074610000746500002028000032
:1051f400313d00006f6b00002c200000303d0000aa
:105204006c6f0000772900000d0a000000220000e6
:105214004322000020200000202000002020000065
:10522400202000002020000020200000202000007a
:1052340020530000656c000065630000746f00007b
:1052440072200000706f0000736900007469000030
:105254006f6e00000d0a000000220000442c0000c4
:10526400232c000023220000202000002020000026
:1052740020200000202000002020000020530000f7
:1052840065740000206d00006f7400006f720000f0
:10529400207300007065000065640000206c00004d
:1052a40065660000742c00007269000067680000e5
:1052b400740d00000a0000002245000022200000b6
:1052c40020200000202000002020000020200000da
:1052d400202000002020000020200000476500005e
:1052e400742000006d6f0000746f000072200000d5
:1052f4007370000065650000642000006c650000a8
:10530400667400002c720000696700006874000075
:105314000d0a000000220000462c00002322000099
:105324002020000020200000202000002020000079
:10533400202000002020000020460000726f0000a2
:105344006e740000206c00006564000020300000d2
:105354003d6f000066660000203100003d6f0000d4
:105364006e200000323d0000696e0000766500008a
:1053740072730000650d00000a000000224700005f
:105384002220000020200000202000002020000017
:105394002020000020200000202000002020000009
:1053a4004952000020720000656300006569000036
:1053b40076650000720d00000a00000022670000fc
:1053c40022200000202000002020000020200000d7
:1053d40020200000202000002020000020200000c9
:1053e40047790000726f00000d0a000000220000df
:1053f400482200002020000020200000202000007f
:105404002020000020200000202000002020000098
:1054140020480000656c0000700d00000a000000c8
:10542400224900002220000020200000202000004b
:105434002020000020200000202000002020000068
:105444002020000047650000742000006361000014
:105454006d65000072610000207000006172000040
:10546400616d000065740000657200000d0a0000a3
:10547400002200004a2c0000232c0000232c0000f2
:10548400232c0000232c0000232c000023220000e6
:1054940020200000205300006574000020630000f9
:1054a400616d000065720000612000007061000001
:1054b400726100006d6500007465000072200000d8
:1054c4006d6f0000646500002c77000069640000c3
:1054d400746800002c6800006569000067740000af
:1054e400682c00007a6f00006f6d00002831000006
:1054f4002c340000206f00007220000038290000c6
:105504002c780000312c0000793100000d0a0000d5
:10551400002200004b220000202000002020000078
:105524002020000020200000202000002020000077
:105534002020000020430000616c0000696200002c
:10554400726100007465000020700000726f00003a
:10555400786900006d690000747900002073000010
:10556400656e0000736f0000727300000d0a000086
:10557400002200004c2c0000232c000023220000f9
:105584002020000020200000202000002020000017
:1055940020200000204c000065640000206e000004
:1055a400756d000062650000722c0000303d000043
:1055b4006f66000066200000313d00006f6e000041
:1055c400203200003d6900006e7600006572000024
:1055d400736500000d0a0000002200004d22000047
:1055e40020200000202000002020000020200000b7
:1055f4002020000020200000202000002046000081
:105604006c6f00006f72000020730000656e000074
:10561400736f0000727300000d0a00000022000086
:105624004e22000020200000202000002020000046
:105634002020000020200000202000002020000066
:1056440020500000726f0000786900006d6900004e
:10565400747900000d0a0000002200004f220000af
:105664002020000020200000202000002020000036
:10567400202000002020000020200000204c0000fa
:10568400696700006874000020730000656e000004
:10569400736f0000727300000d0a00000022000006
:1056a400502c0000232c00002322000020200000a6
:1056b40020200000202000002020000020200000e6
:1056c4002053000065740000206d00006f7400001a
:1056d4006f720000207000006f7300006974000096
:1056e400696f00006e2000006c65000066740000a5
:1056f4002c72000069670000687400000d0a000045
:105704000022000051220000202000002020000080
:105714002020000020200000202000002020000085
:10572400202000002047000065740000206d000068
:105734006f7400006f720000207000006f7300002f
:1057440069740000696f00006e2000006c65000041
:10575400667400002c720000696700006874000021
:105764000d0a000000220000522200002020000048
:105774002020000020200000202000002020000025
:10578400202000002020000020520000657300004b
:1057940065740000206500002d7000007563000032
:1057a4006b0d00000a0000002253000022200000bc
:1057b40020200000202000002020000020200000e5
:1057c400202000002020000020200000537400004e
:1057d4006f700000206500002d70000075630000ec
:1057e4006b200000616e00006420000074750000ee
:1057f400726e0000206f000066660000206c0000de
:1058040065640000730d00000a00000022540000cb
:105814002c23000022200000202000002020000073
:105824002020000020200000202000002020000074
:10583400506c000061790000207300006f75000057
:105844006e640000203100002d350000206500004a
:105854006c73000065200000737400006f7000001a
:10586400207300006f7500006e6400000d0a0000d4
:1058740000220000742200002020000020200000ec
:105884002020000020200000202000002020000014
:105894002020000020540000656d000070650000a9
:1058a4007261000074750000726500000d0a00004a
:1058b40000220000552200002020000020200000cb
:1058c40020200000202000002020000020200000d4
:1058d400202000002047000065740000206d0000b7
:1058e40069630000726f0000706800006f6e000052
:1058f40065200000616d0000706c00006974000098
:1059040075640000650d00000a00000022560000c6
:105914002220000020200000202000002020000081
:105924002020000020200000202000002020000073
:105934005665000072730000696f00006e2000005d
:105944006f6600002053000065720000436f000082
:105954006d0d00000a000000225700002220000004
:105964002020000020200000202000002020000033
:10597400202000002020000020200000577200009a
:1059840069740000652000004932000043200000d3
:10599400286d00006f6400002c7200006567000031
:1059a4002c760000616c0000290d00000a00000044
:1059b40022590000222000002020000020200000a6
:1059c40020200000202000002020000020200000d3
:1059d400202000005265000061640000204900009e
:1059e4003243000020760000616c00003d28000076
:1059f4006d6f0000642c00007265000067290000d0
:105a04000d0a0000002200004122000020200000b6
:105a140020200000202000002041000063630000db
:105a2400656c0000657200006f6d00006574000015
:105a3400657200000d0a00000022000062220000ce
:105a44002020000020200000202000002042000030
:105a54006174000074650000727900002076000013
:105a6400616c0000756500000d0a00000022000052
:105a740062220000202000002020000020200000de
:105a84002042000061740000746500007279000017
:105a94002073000074610000746500002028000079
:105aa400313d00006f6b00002c200000303d0000f1
:105ab4006c6f0000772900000d0a0000002200002e
